:100000000C9466030C948E030C948E030C947F1650
:100010000C947F160C947F160C948E030C948E0314
:100020000C948E030C948E030C948E030C948E030C
:100030000C948E030C948E030C948E030C948E03FC
:100040000C9440130C948E030C948E030C948E032A
:100050000C948E030C948E030C948E030C948E03DC
:100060000C948E030C948E0369057C057F05850531
:1000700088058E055F07AB087E0A9409480B4D0C76
:10008000500C580C560C600C5E0C660C690C6F0C16
:10009000720C780C7B0C7F0C820C890C8C0CAA17D0
:1000A0000818A318A3189A17A318A318A318DE1EDC
:1000B000F51E0F1F381F6A1F921FBF1FDE1F000093
:1000C0000000230026002900000000002400270073
:1000D0002A0000000000250028002B00040404046E
:1000E00004040404020202020202030303030303E2
:1000F00001020408102040800102040810200102BF
:10010000040810200000000800020100000304079A
:10011000000000000000000000053E5B4F5B3E0554
:100120003E6B4F6B3E051C3E7C3E1C05183C7E3CE6
:1001300018051C577D571C051C5E7F5E1C040018AB
:100140003C1805FFE7C3E7FF040018241805FFE784
:10015000DBE7FF0530483A060E05262979292605F2
:10016000407F05050705407F05253F055A3CE73CD4
:100170005A057F3E1C1C0805081C1C3E7F051422E6
:100180007F2214055F5F005F5F0506097F017F0422
:100190006689956A0560606060600594A2FFA2941C
:1001A0000508047E04080510207E20100508082A92
:1001B0001C0805081C2A0808051E10101010050C44
:1001C0001E0C1E0C0530383E383005060E3E0E065D
:1001D000020000015F0307000705147F147F140568
:1001E000242A7F2A12052313086462053649562003
:1001F0005003080703031C22410341221C052A1C4B
:100200007F1C2A0508083E0808038070300508088E
:10021000080808026060052010080402053E5149E4
:10022000453E03427F4005724949494605214149FF
:100230004D33051814127F10052745454539053CF7
:100240004A494931054121110907053649494936CD
:1002500005464949291E01140280680408142241F8
:100260000514141414140441221408050201590938
:1002700006053E415D594E057C1211127C057F49F1
:10028000494936053E41414122057F4141413E05F4
:100290007F49494941057F09090901053E4141510D
:1002A00073057F0808087F03417F41052040413FD7
:1002B00001057F08142241057F40404040057F0230
:1002C0001C027F057F0408107F053E4141413E0529
:1002D0007F09090906053E4151215E057F0919295B
:1002E000460526494949320503017F0103053F4080
:1002F00040403F051F2040201F053F4038403F053C
:100300006314081463050304780403056159494D17
:1003100043037F41410502040810200341417F054A
:100320000402010204054040404040030307080561
:100330002054547840057F284444380538444444C8
:100340002805384444287F05385454541804087E3E
:1003500009020518A4A49C78057F080404780344C6
:100360007D40044080807A047F10284403417F4010
:10037000057C04780478057C080404780538444436
:10038000443805FC182424180518242418FC057C7E
:100390000804040805485454542404043F44240524
:1003A0003C4040207C051C2040201C053C40304047
:1003B0003C054428102844054C9090907C054464EA
:1003C000544C4403083641017703413608050201C5
:1003D000020402053C2623263C051EA1A16112054C
:1003E00038424022780538545455590521555579DD
:1003F0004105215454784105215554784005205435
:1004000055794005183CA4E424053955555559053E
:10041000385554555805395554545803457C4104B2
:1004200002457D420401457C4005F0292429F00560
:10043000F0282528F0047C545545072054547C545A
:100440005408067C0A097F49490532494949320561
:10045000304A484A3005324A484830053A4141213D
:100460007A053A42402078049DA0A07D0538454495
:100470004538053C4140413C053C24FF24240548C7
:100480007E494366052B2FFC2F2B05FF0929F620FB
:1004900005C0887E090305205454794103447D41F9
:1004A000053048484A3205384040227A047A0A0A20
:1004B00072057D0D19317D052629292F280526294C
:1004C0002929260530484D40200538080808080528
:1004D0000808080838052F10C8ACBA052F102834B2
:1004E000FA017B0508142A14220522142A1408058F
:1004F000AA005500AA05AA55AA55AA0500000000A1
:10050000FF0510101010FF0514141414FF0510102F
:10051000FF00FF051010F010F00514141414FC0572
:100520001414F700FF050000FF00FF051414F40485
:10053000FC05141417101F0510101F101F051414AC
:1005400014141F0510101010F0050000001F1005F6
:100550001010101F1005101010F01005000000FF03
:100560001005101010101005101010FF10050000DD
:1005700000FF14050000FF00FF0500001F10170515
:100580000000FC04F4051414171017051414F404E7
:10059000F4050000FF00F7051414141414051414D6
:1005A000F700F70514141417140510101F101F0579
:1005B000141414F414051010F010F00500001F10AE
:1005C0001F050000001F1405000000FC14050000BA
:1005D000F010F0051010FF10FF05141414FF14059F
:1005E000101010101F05000000F01005FFFFFFFFA6
:1005F000FF05F0F0F0F0F003FFFFFF05000000FF43
:10060000FF050F0F0F0F0F053844443844057C2AAF
:100610002A3E14057E0202060605027E027E0205BF
:100620006355494163053844443C0405407E201E1F
:10063000200506027E02020599A5E7A599051C2A58
:10064000492A1C054C7201724C05304A4D4D30054B
:10065000304878483005BC625A463D043E49494915
:10066000057E0101017E052A2A2A2A2A0544445FC3
:1006700044440540514A44400540444A5140050025
:1006800000FF010303E080FF0508086B6B080536D7
:100690001236243605060F090F0604000018180448
:1006A00000001010053040FF010105001F01011E70
:1006B0000500191D171205003C3C3C3C05FF8181DB
:1006C00081FF05FFFFFFFFFF83222A2211241FBEA7
:1006D000CFEFD8E0DEBFCDBF13E0A0E0B1E0E2E6AF
:1006E000F8E502C005900D92A037B107D9F726E0D2
:1006F000A0E7B3E001C01D92AB34B207E1F713E00D
:10070000C5E6D3E004C02197FE010E94AE29C4369D
:10071000D107C9F70E9430230C94242C0C940000BC
:10072000CF93DF9300D0CDB7DEB769831A82DC01A7
:10073000ED91FC910084F185E02DBE016F5F7F4F4C
:10074000099581E090E00F900F90DF91CF9108958F
:10075000089580E090E008950F931F939B018A0114
:10076000FC014481415060E00E94131B1F910F91D6
:1007700008950F931F93FC01678F062F10E022E06E
:1007800030E041A160A1808191810E94131B1F91E3
:100790000F9108952F923F924F925F926F927F92A6
:1007A0008F929F92AF92BF92CF92DF92EF92FF9281
:1007B0000F931F93CF93DF93CDB7DEB760970FB63C
:1007C000F894DEBF0FBECDBF988B8F8704969F83B2
:1007D0008E8340E050E06AE070E00E94AC03412C60
:1007E00019822F85388924503F4F3D872C8780E719
:1007F00093E0885F8E87AC85BD858C91481610F09C
:100800000C941D0D242C312CEF85F88999E3499E19
:10081000E00DF11D112482A193A18630910509F408
:100820004FC0059749F18FB7F89440917B035091E1
:100830007C0360917D0370917E038FBF89E3829D6D
:100840008001839D100D1124EF85F889E00FF11FC1
:10085000828D938DA48DB58D481B590B6A0B7B0B34
:10086000868D978DA0E0B0E0481759076A077B078F
:1008700010F40C94D10C1FC08FB7F89440917B03F7
:1008800050917C0360917D0370917E038FBF828DB8
:10089000938DA48DB58D481B590B6A0B7B0B80A1E2
:1008A00091A1A0E0B0E0481759076A077B0710F450
:1008B0000C94D10CB8CF818D81110C94D10C06C051
:1008C00081E09981982B9983439495CF2FB7F89421
:1008D00080917B0390917C03A0917D03B0917E0376
:1008E0002FBF828F938FA48FB58FDF01A05CBF4F86
:1008F0006D907C906114710411F40C94BF0C095E2E
:100900001F4FAF85B8890A0F1B1F82A193A10097C3
:1009100029F0069711F40C94BF0CBEC0DF01AE5B4A
:10092000BF4F6D927C92E0ACB8E0EB9EC001112409
:100930009C01295F3F4F87A9790148E0849FE01817
:10094000F10811248FEFE81AF80AA12CB12CDF016D
:10095000A85BBF4FBB83AA834F01B7E48B0E911CEA
:100960006F012AE4C20ED11CD3016D913D016623B3
:10097000A1F0AA81BB812D913C91F4014081C80175
:100980000E94C81BA80EB11CD3018C91882361F36F
:10099000F6018081A80EB11CE7CF89E3829DF001AA
:1009A000839DF00D11242F853889E20FF31FB5A226
:1009B000A4A283A594A581309105C1F1823091054F
:1009C000F1F0892B09F059C080AD90E0019623E049
:1009D000880F991F2A95E1F79C012150310937A30F
:1009E00026A3EA14FB0430F487A938E0839FC001F2
:1009F00011242CC08A199B0991A780A73EC087A902
:100A000048E0849FC001112491A780A7EA14FB0449
:100A100048F480ADA8E08A9FC0011124079697A3EF
:100A200086A316C00197A80EB91E25C0EA14FB04C0
:100A300088F480ADB8E08B9FC0011124079697A37E
:100A400086A387A928E0829FC001112491A780A7CF
:100A500080E014C087A9EA18FB08F694E79438E010
:100A6000839FE00CF11C1124F1A6E0A641E0A41A3A
:100A7000B108AE0CBF1CB7A2A6A281E099E3929D7B
:100A8000F001939DF00D1124AF85B889EA0FFB1F8B
:100A900091E0892782A791AB89E3829DF001839D34
:100AA000F00D11242F853889E20FF31FF1A8FF20E4
:100AB00021F005A4F6A5E02D03C007A4F0A9E02DC0
:100AC0003197EB31F10508F02DC7EC5CFF4F0C942A
:100AD000AE29C801FF2019F00E94F20EACC30E949B
:100AE000D70E89E3829DF001839DF00D1124AF851F
:100AF000B889EA0FFB1FE0C14F2D61E002C04F2D06
:100B000060E0C8010E94DD201BC74F2D61E002C0DC
:100B10004F2D60E0C8010E946C0D12C7FF2009F440
:100B200048C1B9E3FB2EF29C6001F39CD00C112468
:100B30008F859889C80ED91ED60192968D919C9169
:100B400093978230910509F440C01CF497FF05C0CB
:100B500059C2039709F450C055C2C8010E94B11C84
:100B6000F601E55BFF4F8083811106C026E030E08F
:100B7000F60133A322A3E4C6C8010E94D70EF601F2
:100B8000E45BFF4F11821082D601D7968C91D797E4
:100B900091012F5F3F4FF29EF001F39EF00D112463
:100BA0002F853889E20FF31F38E0839FC00111249D
:100BB0009183808396968D919C919797DF969C93D5
:100BC0008E93DE9783E090E087C3C8010E946E1C7D
:100BD000F601E55BFF4F8083811104C085E090E062
:100BE000D6017AC3F601E45BFF4F1182108283E0E5
:100BF00090E0F60193A382A3EF84F888F9E34F9E77
:100C0000E00CF11C1124D701D9966D917C91DA97F3
:100C100089E3829D8001839D100D1124EF85F88961
:100C20000E0F1F1FD801DE962D913C91DF97F80122
:100C3000E85BFF4F5F01C801845B9F4F6C01621747
:100C4000730751F5D2968C91882359F00190F08169
:100C5000E02DD6018D919C91E80FF91F40814095C0
:100C600009C00190F081E02DD6018D919C91E80F93
:100C7000F91F408189E3829D8001839D100D11241D
:100C8000EF85F8890E0F1F1FD80157968D919C9103
:100C900058970E945717B2C140815181FC01808151
:100CA0009181FA01E80FF91F8081811106C0D701F7
:100CB000DA963C932E93D99731C0F80142A9419519
:100CC0008789908D0E945717D701D9966D917C9195
:100CD000DA976F5F7F4FDA967C936E93D997F8011E
:100CE00042A9D5012D913C91F60180819181F901B4
:100CF000E80FF91F442319F04081409501C040815D
:100D000089E3829DF001839DF00D11242F853889A0
:100D1000E20FF31F8789908D0E945717D701D9964C
:100D20008D919C91DA9729E3229DF001239DF00D8E
:100D300011242F853889E20FF31FBF01625C7F4FBA
:100D4000DB012D913C9182179307B1F427A9B8E0FC
:100D50002B9F90011124D701DA963C932E93D997BB
:100D6000E45BFF4F208131812F5F3F4F3183208330
:100D70000197FB019183808389E3829DF001839D2C
:100D8000F00D11242F853889E20FF31F9F01245B9A
:100D90003F4FCF01855B9F4FDC018C9190E0D901E3
:100DA0002D913C912817390709F0CAC582E090E0DF
:100DB000C5C549E3429DF001439DF00D11248F8587
:100DC0009889E80FF91F82A193A1813091050CF455
:100DD000A9C584309105CCF0059709F0A3C586A17B
:100DE00097A197AF86AF91012F5F3F4F429FD001F0
:100DF000439FB00D11242F853889A20FB31F8D9307
:100E00009C9383E090E093A382A389E3829D800179
:100E1000839D100D1124EF85F889E00FF11F67887D
:100E2000708CC2A88F84988839E3439E800C911CF3
:100E300011245F014EE3A40EB11C8F01085D1F4F0A
:100E4000D401D996ED90FC90DA97DE2C6E2DC3017B
:100E50000E943717682F70E0C11003C020E030E017
:100E600002C02FEF30E06217730791F4F501208183
:100E70003181D8016D917C91261737074CF0C9015B
:100E80000197D5018D939C93F40132AF21AFD8CF58
:100E900099E3929DF001939DF00D11242F853889DF
:100EA000E20FF31F26AD37AD2F5F3F4F40A551A591
:100EB000241735070CF078C526E030E05ACEFF2025
:100EC00009F4ABC029E3229DF001239DF00D11240C
:100ED000AF85B889EA0FFB1F82A193A184309105E9
:100EE000C4F481309105C4F4892B09F08BC0C10191
:100EF0000196289FD001299FB00D11242F85388994
:100F0000A20FB31F1D921C9283E090E093A382A3D3
:100F100003C0059709F076C0C8010E94D70EC8012A
:100F20000E94F20E89E3829D8001839D100D1124A1
:100F3000AF85B8890A0F1B1FF80167A8660C660CFD
:100F4000660C5524539478015801F8E3AF0EB11C98
:100F500027E1E20EF11C91012F5F3F4F829F60015C
:100F6000839FD00C1124CA0EDB1E77247394D50105
:100F70008C9190E00196E3E0880F991FEA95E1F7E4
:100F8000262D30E02817390754F5D7018D909C9015
:100F9000662DC4010E943717482F50E0552069F094
:100FA000F6018081918127E030E0281B390B02C0D7
:100FB000559547952A95E2F70BC0D6018D919C91E6
:100FC000E7E0F0E0E81BF90B01C0440FEA95EAF70F
:100FD000662DC4010E94571757246394C8CFEF852C
:100FE000F889B9E34B9EE00DF11D112481AD92AD5E
:100FF000019692AF81AF089709F0A2C485E090E016
:10100000F8019CC489E3829DF001839DF00D1124B9
:101010002F853889E20FF31F18C189E3829DF00103
:10102000839DF00D11248F859889E80FF91F82A107
:1010300093A18430910534F48130910514F5892B06
:1010400021F070C4059709F06DC491012F5F3F4FE7
:1010500089E3829FF001839FF00D1124AF85B88949
:10106000EA0FFB1F21E030E031832083829DF001F5
:10107000839DF00D1124EA0FFB1F83E090E093A302
:1010800082A389E3829D8001839D100D1124EF8549
:10109000F8890E0F1F1FD801D7966C90660C660C4E
:1010A000660C5524539478015801B8E3AB0EB11C7B
:1010B000E7E1EE0EF11C91012F5F3F4F829F60012F
:1010C000839FD00C11242F853889C20ED31E77241C
:1010D0007394F501808190E0019673E0880F991F69
:1010E0007A95E1F7262D30E0281739070CF5D7015E
:1010F0008D909C90662DC4010E943717482F50E0B8
:10110000552041F0F601008002C0440F551F0A949B
:10111000E2F707C0D6010C9002C0559547950A9496
:10112000E2F7662DC4010E94571757246394D1CF6C
:10113000EF85F88929E3429EE00DF11D112481AD70
:1011400092AD019692AF81AF089709F0F9C3E6E03E
:10115000F0E0D801DCC0FF2009F47AC029E3229D29
:101160007001239DF00C1124AF85B889EA0EFB1E97
:10117000F70182A193A184309105FCF4823091059E
:10118000CCF50097E9F0019709F055C0EF85F88993
:10119000B9E34B9EE00DF11D112461AD72ADCB01A1
:1011A000019692AF81AFC8010E94B903C8010E94A5
:1011B000F20E83E090E0F701C1C30597D9F03BC080
:1011C000C1010196289FF001299FF00D11242F8560
:1011D0003889E20FF31F11821082D8015F968C913B
:1011E00090E0F70197AF86AFC8010E94D70E81E06B
:1011F00090E071C0AF85B889F9E34F9EA00DB11D95
:101200001124D9966D917C91DA9789E3829DF00142
:10121000839DF00D11242F853889E20FF31F86ADD1
:1012200097AD861797078CF0CB010196DA969C93C1
:101230008E93D99775C089E3829DF001839DF00D4F
:1012400011248F859889E80FF91F85E090E076C317
:1012500089E3829D7001839DF00C1124AF85B889CC
:10126000EA0EFB1EF70182A193A18430910534F4AC
:1012700081309105B4F5892B21F054C3059709F00D
:1012800051C3D8015F966C91862F90E049E3429D4F
:101290007001439DF00C1124EF85F889EE0EFF1EBE
:1012A000D701DF969C938E93DE9791012F5F3F4F7E
:1012B000429FF001439FF00D11242F853889E20FE2
:1012C000F31F91838083C8010E94B903C8010E9463
:1012D000F20E83E090E0D70193969C938E939297C1
:1012E0002FC3EF85F889B9E34B9EE00DF11D112462
:1012F00061AD72AD77FF10C0F70166ADC8010E9405
:10130000B903C8010E94D70EE6E0F0E0D70193963A
:10131000FC93EE93929714C3CB01019792AF81AFE8
:10132000C8010E94B9030CC389E3829DF001839D2B
:10133000F00D1124AF85B889EA0FFB1F82A193A19C
:101340008230910509F480C02CF4009751F0019788
:1013500011F191C28330910509F490C1059709F00C
:101360008AC291012F5F3F4F89E3829FF001839FE3
:10137000F00D11242F853889E20FF31F118210829E
:10138000829DF001839DF00D1124E20FF31F81E097
:1013900090E093A382A38F84988839E3439E800CC6
:1013A000911C1124D401D9968D919C91DA970196C4
:1013B000DA969C938E93D99789E3829D7001839DE1
:1013C000F00C1124EF85F889EE0EFF1ED701D79699
:1013D0000C91B8E00B9F8001112467013701E8E30D
:1013E0006E0E711C5701F2E3AF0EB11C55245394DD
:1013F00027E1C20ED11CD3018C9190E0019663E0ED
:10140000880F991F6A95E1F7F40121AD32AD0817F5
:1014100019079CF4C801837099278217930754F425
:10142000D5014C9145254195602FF6018081918130
:101430000E9457170F5F1F4FDECF2430310509F090
:101440007FC282E090E047CFC8010E94D70EFF2004
:1014500019F0C8010E94F20E8F849888B9E34B9E60
:10146000800C911C1124F40181AD92AD019792AFD3
:1014700081AF89E3829D7001839DF00C11242F853B
:101480003889E20EF31ED701D7960C91B8E00B9F76
:101490008001112467013701E8E36E0E711C5701CA
:1014A000F2E3AF0EB11C5524539427E1C20ED11CB8
:1014B000D3018C9190E0019653E0880F991F5A95C3
:1014C000E1F7F40121AD32AD081719079CF4C8010A
:1014D000837099278217930754F4D5014C914525C1
:1014E0004195602FF601808191810E9457170F5F0F
:1014F0001F4FDECF232B09F023C2EBCE89E3829D61
:10150000F001839DF00D11242F853889E20FF31F20
:1015100082A193A18230910509F459C01CF497FD72
:10152000AAC107C08330910509F4A8C0059709F046
:10153000A2C189E3829D6001839DD00C11248F8517
:101540009889C80ED91ED601D7960C91B8E00B9F8A
:10155000800111244601E8E38E0E911C5601F2E34E
:10156000AF0EB11C9601295E3F4F7901D4018C91D9
:1015700090E0019643E0880F991F4A95E1F708171C
:10158000190714F5D5017C90602F772039F0F70109
:10159000808191810E943717809505C0D7018D9178
:1015A0009C910E94371700FD02C04AEA01C045E540
:1015B000482B71104095602FF701808191810E9426
:1015C00057170F5F1F4FD2CF82E090E055C0C80180
:1015D0000E94D70EFF2019F0C8010E94F20E89E385
:1015E000829D6001839DD00C11242F853889C20E05
:1015F000D31ED601D7960C91B8E00B9F8001112421
:101600004601E8E38E0E911C5601F2E3AF0EB11CC9
:101610009601295E3F4F7901D4018C9190E00196AB
:1016200033E0880F991F3A95E1F70817190714F569
:10163000D5017C90602F772039F0F701808191816E
:101640000E943717809505C0D7018D919C910E940B
:10165000371700FD02C045E501C04AEA482B71106A
:101660004095602FF701808191810E9457170F5F8D
:101670001F4FD2CF83E090E0F60160C1C8010E9405
:10168000D70EFF2009F4E7C0C8010E94F20EE6C0A1
:1016900089E3829DF001839DF00D11242F85388907
:1016A000E20FF31F82A193A18430910534F48130BD
:1016B0009105E4F4892B21F0DEC0059709F0DBC029
:1016C000E0E7F3E0DF01A55F8A2F11928E13FDCFD3
:1016D00089E3829DF001839DF00D11242F853889C7
:1016E000E20FF31F83E090E093A382A38F84988896
:1016F00039E3439E800C911C1124D401DA961C928C
:101700001E92D9970E94B6286A837B838C839D831F
:101710000E94B628688779878A879B87F401A1ACE5
:10172000B2ACFFEFAF1ABF0AD401DA96BC92AE9208
:10173000D9976A817B818C819D812BE030E040E0EC
:1017400050E00E94002970E0FB01E059FC4F6F015E
:10175000E080688579858A859B8528E030E040E0D7
:1017600050E00E9400298E2D90E0062E02C0959533
:1017700087950A94E2F780FD25C081E090E001C0E2
:10178000880F6A95EAF7E82AD601EC92C8010E9410
:10179000F20EF40112AE11AE89E3829D8001839DA9
:1017A000100D1124EF85F889E00FF11FE7A8EE0C6A
:1017B000EE0CEE0C6F0128E3C20ED11C8F01095E06
:1017C0001F4F2BC038E8A31633E1B3060CF49ACFB1
:1017D000D4CFD801AD90BC906E2DC5010E943717B3
:1017E000F40121AD32ADF901E059FC4F4081F11017
:1017F00001C0409548236E2DC5010E945717D401A2
:10180000D9968D919C91DA9701968B309105A1F034
:10181000DA969C938E93D997E394D6018C9190E0BD
:10182000019623E0880F991F2A95E1F72E2D30E0CD
:101830002817390774F204C0F40112AE11AEECCFD0
:10184000E0E7F3E081918F3F09F07AC0BE85BE13D7
:10185000F9CFF11003C086E090E002C085E090E08F
:1018600029E3229DF001239DF00D11242F85388955
:10187000E20FF31F63C0F11003C086E090E002C0E6
:1018800085E090E029E3229DF001239DF00D1124D5
:10189000AF85B889EA0FFB1F51C04F2D60E002C031
:1018A0004F2D61E0C8010E9414204AC041E001C0F0
:1018B00040E06F2DC8010E94400F42C041E001C0CE
:1018C00040E06F2DC8010E945B213AC04F2D60E0BF
:1018D00002C04F2D61E0C8010E94BB1031C04F2DE6
:1018E00060E002C04F2D61E0C8010E94541228C080
:1018F0002F2D41E002C02F2D40E061E006C02F2DCA
:1019000041E002C02F2D40E060E0C8010E94BC1100
:1019100017C04F2D61E002C04F2D60E0C8010E944A
:10192000E20F0EC089E3829DF001839DF00D11242A
:101930002F853889E20FF31F86E090E093A382A3FE
:1019400089E3829DF001839DF00D1124AF85B88954
:10195000EA0FFB1F81A9882339F081E022A133A17E
:101960002530310509F480E099E3929DF001939DC3
:10197000F00D11242F853889E20FF31F81AB89E325
:10198000829DF001839DF00D11248F859889E80FC9
:10199000F91F81E022A133A12630310511F40C9406
:1019A000610480E00C94610420AD48E0249F900124
:1019B0001124295F3F4FE216F30634F461E06D0D08
:1019C000482FC3010E94571789E3829D8001839DA0
:1019D000100D11248F859889080F191FD801D296F0
:1019E0004C91D2974195D9966C91D99757968D91F4
:1019F0009C9158970E945717F80121AD32AD2F5F87
:101A00003F4F32AF21AF80AD90E00196A3E0880F49
:101A1000991FAA95E1F72817390709F091CFFE968B
:101A2000808191819C012150310931832083D8012B
:101A3000DA969C938E93D99783CF41E050E06AE089
:101A400070E08E819F810E94AC03898160960FB601
:101A5000F894DEBF0FBECDBFDF91CF911F910F91E4
:101A6000FF90EF90DF90CF90BF90AF909F908F90BE
:101A70007F906F905F904F903F902F900895CF92FE
:101A8000DF92EF92FF920F931F93CF93DF936C013E
:101A90007A018B01C0E0D0E0CE15DF0589F0D801D6
:101AA0006D918D01D601ED91FC910190F081E02DB9
:101AB000C6010995892B11F47E0102C02196ECCF55
:101AC000C701DF91CF911F910F91FF90EF90DF90B1
:101AD000CF9008950E94BF2B8F929F92AF92BF929A
:101AE000CF92DF92EF92FF920F931F93CF93DF93EA
:101AF000EC01D62E8B859C85442309F4B1C082303D
:101B00009105B9F01CF497FF08C0A7C08330910578
:101B1000E9F0049709F47EC0A0C0CE010E94B11C78
:101B20008CAB882309F432C11EAA1DAA83E090E081
:101B30002FC1CE010E946E1C8CAB882309F48DC08E
:101B40001EAA1DAA83E090E09C878B8721E02D25AB
:101B500030E049A168A1888199810E946C174B8D62
:101B600029A93AA98DA99EA9442359F0AC014F5F38
:101B70005F4F5EAB4DABF901E80FF91F4081409517
:101B800009C0AC014F5F5F4F5EAB4DABF901E80F91
:101B9000F91F4081DD2029F068A1660F660F660FEE
:101BA00005C069A1660F660F660F695F888199811C
:101BB0000E9457178CA990E02DA93EA92817390734
:101BC00009F0E8C08DA5811103C082E090E0E0C07B
:101BD0002F853889DD2071F08D859E85A901481BF0
:101BE000590BCA01019628A158E0259F8019910937
:101BF000112408C089A148E0849FC00111240796E0
:101C0000821B930B9EAB8DAB1816190634F584E03E
:101C100090E0BEC021E0262730E049A168A188817C
:101C200099810E946C174B8D4195DD2029F068A1A8
:101C3000660F660F660F05C069A1660F660F660F17
:101C4000695F888199810E9457178DA99EA9019784
:101C50009EAB8DAB892B09F09DC085E090E098C0CC
:101C60008430910539F0059709F090C084E090E048
:101C70009C878B8721E02D2530E049A168A18881D0
:101C800099810E946C174B8D4195DD2029F068A148
:101C9000660F660F660F05C069A1660F660F660FB7
:101CA000695F888199810E94571709A110E088A176
:101CB00090E07801E81AF90A5FEFE51AF50A63E0A7
:101CC000EE0CFF1C6A95E1F72C8D3D8D2115310539
:101CD00021F02E153F0508F479010F5F1F4FDD201D
:101CE00041F16C0143E0CC0CDD1C4A95E1F753E077
:101CF000000F111F5A95E1F7560145018C189D08F8
:101D0000A016B1060CF03FC06A2D888199810E940F
:101D1000371790E02B8D211103C020E030E002C086
:101D20002FEF30E08217930771F58FEFA81AB80AEA
:101D3000E4CF23E0000F111F2A95E1F701501109AC
:101D40006C0133E0CC0CDD1C3A95E1F7812C912C31
:101D50000C151D05C4F0602F888199810E943717EA
:101D6000282F30E08B8D811103C080E090E002C00D
:101D70008FEF90E02817390731F4015011092FEF48
:101D8000821A920AE5CF8E149F0420F086E090E03C
:101D90009C878B87DF91CF911F910F91FF90EF90E0
:101DA000DF90CF90BF90AF909F908F900895CF938A
:101DB000DF93EC0149A168A188819981461710F051
:101DC0000E940F178B8D882351F027E030E049A146
:101DD00068A188819981DF91CF910C946C17DF9174
:101DE000CF910895EF92FF920F931F93CF93DF93BC
:101DF000EC010E94D70EEF84F888CE010E94B11C3E
:101E00008CAB1EAA1DAA870189899A890817190710
:101E100084F18CA990E02DA93EA92817390731F447
:101E2000CE010E946E1C8CAB1EAA1DAA4B8D8DA9E3
:101E30009EA929A93AA9442359F0AC014F5F5F4FED
:101E40005EAB4DABF901E80FF91F4081409509C029
:101E5000AC014F5F5F4F5EAB4DABF901E80FF91F6F
:101E60004081602F888199810E9457170150110984
:101E7000CBCFDF91CF911F910F91FF90EF900895FD
:101E8000FF920F931F93CF93DF93EC01F42E8B857A
:101E90009C85662309F445C0843091056CF481303B
:101EA000910564F4892BD1F5CE010E941A1D83E0BF
:101EB00090E09C878B8702C0059781F5CE010E9438
:101EC000F20E2AA13BA18FA198A52817390731F15D
:101ED0000DA11EA18CA1082E000C990B4FA158A595
:101EE000480F591F2AA13BA10417150709F45BC02D
:101EF000F11004C00217130721F40AC002171307D8
:101F000039F44B8D4195602F888199810E94571734
:101F10008CA1080F111D87FD1A95DCCF85E090E09C
:101F200049C08430910534F48130910564F4892BE3
:101F300019F03EC00597E1F5CE010E941A1D83E01D
:101F400090E09C878B87CE010E94F20E0DA11EA10E
:101F50004FA158A58CA1082E000C990BBA01680F4F
:101F6000791F2AA13BA106171707B1F0F11004C091
:101F70000217130721F40AC00217130739F44B8D17
:101F80004195602F888199810E9457178CA1080F75
:101F9000111D87FD1A95DCCF2417350721F446E083
:101FA00050E05C874B87820F931F9BA38AA304C0DA
:101FB00086E090E09C878B87DF91CF911F910F91F6
:101FC000FF900895CF92DF92EF92FF920F931F93AD
:101FD000CF93DF93EC01162F8B859C85442309F466
:101FE0005DC08430910534F481309105B4F4892BBF
:101FF00021F051C0059789F04EC0CE010E941A1DF4
:10200000111103C081E090E002C08FEF90E09BA32C
:102010008AA383E090E09C878B87CE010E94F20E1A
:102020002AA13BA1111103C08FEF90E002C080E014
:1020300090E02817390779F1EDA0FEA02CA18FA11F
:1020400098A5820F911D27FD9A95E816F906E9F0EB
:102050000B8DC880D9806E2DC601002321F00E940F
:102060003717809502C00E9437174AA11111409579
:102070004823011140956E2DC6010E9457178CA16F
:10208000E80EF11C87FDFA94D9CF8AA19BA11123F8
:1020900009F459C05EC085E090E062C084309105CB
:1020A00034F481309105B4F4892B21F057C00597A1
:1020B00009F054C0CE010E941A1D111103C08FEF08
:1020C00090E002C081E090E09BA38AA383E090E0CF
:1020D0009C878B87CE010E94F20EEDA0FEA02CA162
:1020E0008FA198A5820F911D27FD9A95E816F906F4
:1020F000E9F00B8DC880D9806E2DC601002321F038
:102100000E943717809502C00E9437174AA111110B
:1021100040954823011140956E2DC6010E94571726
:102120008CA1E80EF11C87FDFA94D9CF8AA19BA15E
:10213000112369F08F3F910531F426E030E03C87B0
:102140002B87112331F0880F991F816004C00097FD
:10215000A1F3959587959BA38AA304C086E090E0A0
:102160009C878B87DF91CF911F910F91FF90EF900C
:10217000DF90CF900895EF92FF920F931F93CF932C
:10218000DF93EC01162F8B859C85442309F46DC0E9
:1021900097FD68C0833091051CF0039741F162C040
:1021A0006F85788989899A899B01281B390BC90118
:1021B00037FD01969595879501969BA38AA31123D8
:1021C00099F04B8D11E041274195681B88819981D9
:1021D0000E9457174B8D412741956AA18989680F45
:1021E000888199810E94571783E090E0BCC08AA142
:1021F0009BA197FD37C0CE010E94F20EE12CF12C7D
:102200008AA19BA1E816F906A4F44B8D4195698932
:102210006E0D888199810E9457174B8D41956F856E
:102220006E19888199810E9457173FEFE31AF30ACC
:10223000E7CF01979BA38AA3112309F496C097FDCA
:1022400094C04B8D11E0412741956989680F8881C1
:1022500099810E9457174B8D412741956F858AA11F
:10226000681B75C085E090E07EC08330910539F130
:1022700024F401970CF475C003C0059709F071C0F0
:10228000CE010E94D70ECE010E94F20E1BA21AA20E
:10229000112389F04B8D01E0402741956F8588819E
:1022A00099810E9457174B8D4027419569898881F4
:1022B00099810E94571783E090E09C878B872AA121
:1022C0003BA16F85788989899A89AB01481B590B95
:1022D000CA0157FD019695958795821793070CF4CF
:1022E00040C04B8D4195621B888199810E94571790
:1022F0004B8D41956AA18989680F888199810E94D7
:1023000057172AA13BA12F5F3F4F3BA32AA31123BD
:1023100061F16F85788989899A89AB01481B590BCE
:10232000CA0157FD01969595879582179307ECF0A2
:102330004B8D11E041274195621B888199810E9454
:1023400057174B8D412741956AA18989680F88816C
:102350009981DF91CF911F910F91FF90EF900C9495
:10236000571786E090E09C878B87DF91CF911F9174
:102370000F91FF90EF900895DF92EF92FF920F93ED
:102380001F93CF93DF93EC01D62EF42E8B859C8583
:10239000222309F448C084309105B4F481309105BA
:1023A000ACF4892BE9F51BA21AA200E010E02BE0A7
:1023B00030E049A168A1888199810E94131B83E0C4
:1023C00090E09C878B8702C0059751F5CE010E9453
:1023D000D70ECE010E94F20EEAA00F2D10E086E08B
:1023E0008E15B0F0D11003C022E030E002C023E02F
:1023F00030E049A168A1888199810E946C179801F9
:1024000049A168A1888199810E946C17E394E7CF64
:102410008AA19BA187309105B9F525E030E032C053
:1024200085E090E037C08430910534F48130910527
:102430005CF4892B19F02CC0059751F51BA21AA248
:1024400083E090E09C878B87D11003C023E030E0CD
:1024500002C022E030E049A168A1888199810E94F0
:102460006C1781E02F2D282730E049A168A18881D1
:1024700099810E946C178AA19BA18730910521F454
:1024800026E030E03C872B8701969BA38AA304C0FB
:1024900086E090E09C878B87DF91CF911F910F9111
:1024A000FF90EF90DF900895CF92DF92FF920F930D
:1024B0001F93CF93DF93EC01F62E8B859C854423ED
:1024C00009F462C097FD5DC0833091051CF003974D
:1024D000E9F057C01BA21AA2CE010E94D70EFF201E
:1024E00089F04B8D11E0412741956F858881998155
:1024F0000E9457174B8D41274195698988819981A1
:102500000E94571783E090E09C878B87CE010E9442
:10251000D70ECE010E94F20E09891A898F859889FB
:10252000801B910B97FD01966C01D594C7948AA1ED
:102530009BA1C816D9062CF1080F191F0F5F1F4F5A
:102540006F8578898AA19BA19B01281B390B0217F3
:10255000130744F44B8D4195602F888199810E9427
:102560005717ECCF01969BA38AA3FF2009F480C0E4
:10257000C816D9060CF47CC04B8D11E0412741955B
:102580005DC085E090E072C083309105A1F124F434
:1025900001970CF469C003C0059709F065C08F85E9
:1025A000988929893A89821B930B97FD0196959505
:1025B00087959BA38AA3CE010E94D70ECE010E94CD
:1025C000F20EFF20A9F04B8D11E0412741956F8558
:1025D0008AA1681B888199810E9457174B8D4127DA
:1025E00041956AA18989680F888199810E9457174E
:1025F00083E090E03BC08AA19BA197FD35C04B8D45
:1026000041956F85681B888199810E9457174B8D72
:1026100041956AA18989680F888199810E9457171D
:102620008AA19BA101979BA38AA3FF2009F197FD93
:102630001FC04B8D11E0412741956F85681B888134
:1026400099810E9457174B8D412741956AA189892D
:10265000680F88819981DF91CF911F910F91FF9031
:10266000DF90CF900C94571786E090E09C878B8783
:10267000DF91CF911F910F91FF90DF90CF90089540
:102680001F920F920FB60F9211242F933F938F93A7
:102690009F93AF93BF9380917B0390917C03A09114
:1026A0007D03B0917E033091830323E0230F2D3708
:1026B00020F40196A11DB11D05C026E8230F029646
:1026C000A11DB11D2093830380937B0390937C0312
:1026D000A0937D03B0937E0380917F03909180034C
:1026E000A0918103B09182030196A11DB11D809339
:1026F0007F0390938003A0938103B0938203BF91E3
:10270000AF919F918F913F912F910F900FBE0F909E
:102710001F90189590E0FC01EC5FFE4F3491FC0196
:10272000E051FF4F2491FC01E452FF4FE491EE236E
:1027300009F43BC0332339F1333091F038F43130B0
:10274000A9F0323001F584B58F7D12C0373091F099
:102750003830A1F03430B9F4809180008F7D03C00F
:10276000809180008F77809380000DC084B58F7733
:1027700084BD09C08091B0008F7703C08091B00004
:102780008F7D8093B000F0E0EE0FFF1FEE52FF4F01
:10279000A591B4918FB7F894EC91611103C0209585
:1027A0002E2301C02E2B2C938FBF0895CF93DF9340
:1027B00090E0FC01E051FF4F2491FC01E452FF4FF7
:1027C0008491882361F190E0880F991FFC01E85300
:1027D000FF4FC591D491FC01EE52FF4FA591B491EA
:1027E000611109C09FB7F89488812095822388835E
:1027F000EC912E230BC0623061F49FB7F8943881BE
:10280000822F809583238883EC912E2B2C939FBF5E
:1028100006C08FB7F894E8812E2B28838FBFDF91F5
:10282000CF910895209186033091870328173907A7
:1028300071F49091840380918503981741F0E091A1
:102840008403F0E0E65FFA4F808190E008958FEF17
:102850009FEF089508951F93CF93DF93DC015C965B
:102860002D913C915D972115310539F481E090E07F
:1028700013969C938E9312973DC05196ED91FC91C7
:10288000529750969C915097892F80951FB75E96CE
:102890004C915E9741FB772770F941FD6095F89464
:1028A0004081772311F0492B01C048234083E9017F
:1028B0002197F1F748E0508160FF02C0592B01C019
:1028C00058235083E9012197F1F76695415099F714
:1028D000772321F090818923808303C08081982B06
:1028E00090831FBF5C968D919C915D970197F1F746
:1028F00021E030E0C901DF91CF911F91089520912F
:102900008603309187032817390771F48091850376
:102910002091840390E0805C9F4F821B910960E4CA
:1029200070E00E949A29089580E090E00895209137
:1029300086033091870328173907B9F490918403EF
:1029400080918503981789F0E0918403F0E0E65FB9
:10295000FA4F80812091840330E02F5F3F4F2F7327
:1029600033272093840390E008958FEF9FEF08951D
:10297000FC0180819181009711F00C94C42860E0E3
:1029800070E0CB0108952F923F924F925F926F9229
:102990007F928F929F92AF92BF92CF92DF92EF92EF
:1029A000FF920F931F93CF93DF9300D000D0CDB74A
:1029B000DEB7FC01448055804114510409F413C171
:1029C000FB01648075806114710409F40CC17A0103
:1029D0006B019C838B83FA01A480B580A618B7088D
:1029E000FC0100811181A114B104C1F4F6016081E0
:1029F0007181C8010E940A2C5C01892B09F4F3C083
:102A0000F7016081718144815581C5010E94C42B09
:102A1000F701048115810A0D1B1DE8CFB7FE02C026
:102A2000480106C0FB01208031804201C80148C036
:102A3000F60160817181C4010E940A2C2C01892B4E
:102A400029F1320168187908A301B401C8010E9474
:102A5000C42B060D171DF7016081718144815581DA
:102A6000C8010E94C42BF70184819581080F191FAA
:102A7000F60184809580840C951CEB81FC81848117
:102A800095818A0D9B1D95838483D2CFB401C801A3
:102A90000F900F900F900F90DF91CF911F910F919A
:102AA000FF90EF90DF90CF90BF90AF909F908F906E
:102AB0007F906F905F904F903F902F900C94E62BFB
:102AC000B1010E940A2C009729F0860D971D8A0CEF
:102AD0009B1CF6CF8414950409F485C0EB81FC811E
:102AE000828193818815990578F4B4016F5F7F4FD7
:102AF000C8010E94F52A009709F475C0EB81FC819A
:102B00009183808393828282EB81FC810481158191
:102B10000150110917FD67C0F6012480358021148A
:102B2000310409F460C0EB81FC816480758061141C
:102B3000710409F458C06214730408F454C00615F3
:102B4000170518F0830101501109EB81FC814080C9
:102B50005180C20188248A94982C9201200F311F41
:102B60002817390758F0F6016081718129833A836B
:102B70000E940A2C29813A81009761F597FC33C0A5
:102B8000280C391CC201820D931DA301421953095F
:102B9000BC018A0D9B1D0E94CD2BEB81FC818481A1
:102BA00095818A0D9B1D9583848320813181F90154
:102BB000E80FF91F1082EB81FC8180819181F70180
:102BC0006081718144815581880D991D0E94C42BBB
:102BD00084019ECFAC01441955090417150708F06C
:102BE0004A010196BDCF0F900F900F900F90DF918B
:102BF000CF911F910F91FF90EF90DF90CF90BF90FA
:102C0000AF909F908F907F906F905F904F903F908C
:102C10002F900895FB0144815581FC012481358169
:102C20002417350778F080819181009759F0FB01D6
:102C3000608171816115710529F00E94ED2B21E001
:102C4000892B09F020E0822F0895EF92FF920F93D5
:102C50001F93CF93DF93EC017B018A0188819981D7
:102C6000009729F02A813B8124173507F8F4B80131
:102C70006F5F7F4F0E94F52A009759F099838883F0
:102C80001B830A832C813D81232B81F4FC0110825C
:102C90000DC088819981009711F00E945D2A1982E8
:102CA00018821D821C821B821A8207C01D830C831E
:102CB000B701888199810E94E62BCE01DF91CF91E7
:102CC0001F910F91FF90EF900895FC0180819181F9
:102CD0000C945D2AFC0111821082138212821582EB
:102CE00014826115710551F0FB0101900020E9F794
:102CF0003197AF01461B570B0C94251608951F9270
:102D00000F920FB60F9211242F933F934F935F931F
:102D10006F937F938F939F93AF93BF93EF93FF93A3
:102D2000E0918603F0918703309709F451C0968DA6
:102D3000A685B785858591FF04C09C91892329F4D8
:102D400047C09C91892309F043C0A389B4899C9111
:102D50008589809589238C93868997890197F1F7D6
:102D6000608D718DA685B785558538E020E0CB0153
:102D70000197F1F7822F90E095958795282F4C9138
:102D8000452309F02068315091F7868D81FD20950B
:102D90008091850390E001968F7399273091840389
:102DA000381749F0A0918503B0E0A65FBA4F2C9385
:102DB0008093850303C0868D8160868F828D938D7D
:102DC0000197F1F7A389B4899C918589892B8C930C
:102DD000FF91EF91BF91AF919F918F917F916F91F3
:102DE0005F914F913F912F910F900FBE0F901F90C9
:102DF0001895E0918603F0918703E817F90769F4C5
:102E0000A389B4899C918589809589238C9310929C
:102E100087031092860381E0089580E00895CF93A0
:102E200058E07FEF4617D0F0A9E06A9F9001112487
:102E3000DC011596ED91FC911697E20FF31FDF016F
:102E4000C52F1D92CA95E9F7DC011596ED91FC910D
:102E50001697E20FF31F70876F5FE4CFFC012585A3
:102E6000222319F0CF910C949B1ACF910895462FED
:102E700047706695669566950C947D1EFC01A18948
:102E8000B289109799F0478550899D013E5F80E097
:102E900090E08D939D93FA01E80FF91FE491F0E023
:102EA00031968E0F9F1FA217B30799F70895242F0D
:102EB000362F369536953695DC011496EC91F0E078
:102EC000432F50E04E175F072CF4462F4770632FB7
:102ED0000C942E1E80E008954F925F926F927F9225
:102EE0008F929F92AF92BF92CF92DF92EF92FF921A
:102EF0000F931F93CF93DF93CDB7DEB729970FB60C
:102F0000F894DEBF0FBECDBF8C01F62EE42E690112
:102F1000DC011D965C901D97461708F425C11D968F
:102F20001C922830310508F01FC1F901E15BFF4F09
:102F30000C94AE2950E070E03A01661A770A77FEE9
:102F400003C0EFEF6E1A7E0A75946794812C99E0A6
:102F5000992EB3C0DC011E968C91882351F0642F0A
:102F6000660F660F660F695FC8010E943717B82E9B
:102F700014C0F801A384B484A114B10469F0642FCF
:102F8000660F660F660F695FC8010E943717482FEA
:102F9000B6018E2DF5010995B12C8F2C912C8E2D1B
:102FA0000E2C000C990B88159905F4F0A6016E2DD6
:102FB000C8010E94C11EAA24AA94AE0C47E06A2D43
:102FC000C8010E947D1ED80114964C9150E02E2D10
:102FD00030E02417350734F4282F40E06E2DC80167
:102FE0000E942E1EEA2CDBCFD8011996ED91FC91A0
:102FF0001A97309741F01E968C91811104C0B6014A
:103000008F2D0995B82E6F2D660F660F660F50C075
:10301000FC018685882341F0660F660F660FC801A4
:103020000E943717B82E11C0A384B484A114B10430
:1030300059F0660F660F660FC8010E943717482FB8
:10304000B6018F2DF5010995B12CA6016F2DC80190
:103050000E94C11EAA24A394AF0C40E06A2DC801AF
:103060000E947D1ED80114964C9150E02F2D30E027
:103070002417350734F4282F47E06F2DC8010E942C
:103080002E1EFA2CEA1408F7D8011996ED91FC913E
:103090001A97309741F01E968C91811104C0B601A9
:1030A0008E2D0995B82E6E2D660F660F660F695F1F
:1030B0004B2DC8010E9457174EC0882D90E08615F1
:1030C0009705C4F5F80125813681FB01E80FF91F4A
:1030D0009E9E50019F9EB00C1124F901EA0DFB1D2C
:1030E000DE011196492C01900D924A94E1F7FA0104
:1030F000E81BF90B9E9EC0019F9E900D1124F801C4
:10310000A581B681AA0DBB1DF901E80FF91F292D74
:1031100001900D922A95E1F7F801A581B681A80FDB
:10312000B91FFE013196892D01900D928A95E1F724
:103130008394C3CFA6016F2DC8010E94C11EF394D2
:10314000EF14C0F708C0A6016F2DC8010E94C11E70
:10315000F394EF14C0F7D8011D965C92552031F01E
:10316000C8010E949B1A02C080E001C081E029963C
:103170000FB6F894DEBF0FBECDBFDF91CF911F9188
:103180000F91FF90EF90DF90CF90BF90AF909F9006
:103190008F907F906F905F904F900895AF92BF9205
:1031A000CF92DF92EF92FF920F931F93CF93DF9313
:1031B000EC018B818823B9F080910805882379F090
:1031C0008FB7F89490910805913039F49DB390939E
:1031D00009059DB39DBB8FBF02C08093090580E5A3
:1031E0008CBD81E08DBD60E08A810E948A138B8155
:1031F000811103C000E010E03AC020E030E08C8193
:1032000090E0880F991F2817390770F4EF81F8852F
:10321000E20FF31F80818EBD00000DB407FEFDCFCD
:103220008EB52F5F3F4FEBCF61E08A810E948A13FA
:103230008B81882309F43EC02DC0B6010E2C02C03C
:10324000759567950A94E2F7617077278A2D0E9439
:103250008A1361E08B2D0E948A1360E08B2D0E94FF
:103260008A1381E0E81AF10840F70F5F1F4F8C8145
:1032700090E0880F991F08171907B0F6EF81F885BD
:10328000E00FF11FC080B980A88037E0E32EF12C59
:10329000D12CD3CF80910805882361F09FB7F89493
:1032A0002091080580910905213019F48DBB9FBF3D
:1032B00001C08FBFDF91CF911F910F91FF90EF90D1
:1032C000DF90CF90BF90AF900895FC01448150E013
:1032D000440F551F60E070E0878190850C94DF2BD0
:1032E000FC01968D828DA3A5B4A591FD0AC088230B
:1032F00019F08689978902C0808D918D0597B1F468
:1033000009C0882319F08689978902C0808D918D24
:10331000059761F081E021A532A5A217B30709F056
:1033200080E085A71197B4A7A3A70895CD010196C2
:1033300094A783A781E011969C91911180E085A7C5
:103340000895562FFB018E2F851B8417A0F49081C2
:10335000892F8575880F96959575892B282F23734E
:1033600094E0299F90011124869586958373822B82
:1033700082958193E8CF0895842F869550E0460F7B
:10338000571F262FFB019E2F921B981740F4908108
:1033900041505109DA013C9131939C93F4CF089547
:1033A000CF92DF92EF92FF920F931F93CF93DF9311
:1033B00000D0CDB7DEB77C016A01CA0101966983EE
:1033C0007A830E94C8298C0169817A810097A9F0CB
:1033D000A6010E94C42BF801EC0DFD1D1082D7013F
:1033E000ED91FC910084F185E02DB801C7010995AC
:1033F000C8010E945D2AC60102C080E090E00F90E3
:103400000F90DF91CF911F910F91FF90EF90DF9080
:10341000CF9008950F931F93CF93DF93EC018B010F
:10342000FC01E450FF4F8081882381F0EC5BF109BF
:10343000718360831F8E1E8E19A218A281E090E016
:103440009EA78DA718AA1FA61BA21AA2CE010E9492
:10345000CA038111FBCFF80101900020E9F7CF01E9
:103460000197801B910BDF91CF911F910F910895D0
:10347000CF92DF92EF92FF920F931F93CF93DF9340
:10348000E62EF12CFC01248130E0E216F3060CF06C
:1034900049C0EC01F9E06F9F80011124C12CD12CAF
:1034A000ED81FE81E00FF11F808590E00C2C02C0C1
:1034B000959587950A94E2F780FF27C0CE010E9478
:1034C0006519EC81F0E03197EE19FF09EE0FFF1F4F
:1034D0008F819885E80FF91F81E08C0D8083ED8145
:1034E000FE81E00FF11FEC0DFD1D8081EC81F0E00D
:1034F0003197EE19FF09EE0FFF1F2F813885E20F7C
:10350000F31F8183CE010E94CE188FEFC81AD80A0C
:10351000E8E0CE16D10421F66D817E81FB01E00F3B
:10352000F11F1086DF91CF911F910F91FF90EF90C7
:10353000DF90CF900895DF92EF92FF920F931F9349
:10354000CF93DF93EC01E12CF12C01E010E0CE01F0
:103550000E946519C8010E2C02C0880F991F0A9499
:10356000E2F760E0D12C71E07E0D2C8130E0462F37
:1035700050E04217530784F5E9E06E9FD001112413
:10358000ED81FE81EA0FFB1FE085F0E0E823F923DF
:10359000EF2B01F121503109241B350B220F331F72
:1035A000EF81F885E20FF31F70832D813E81A20F1A
:1035B000B31FAE0DBF1D2C91EC81F0E03197E41BE1
:1035C000F50BEE0FFF1F4F815885E40FF51F218388
:1035D000DD24D3946F5FC9CFDD2019F0CE010E94A6
:1035E000CE188FEFE81AF80A98E0E916F10409F00E
:1035F000AECF80E02C8130E0482F50E042175307D7
:1036000054F4ED81FE8199E0899FE00DF11D1124B4
:1036100010868F5FEFCFDF91CF911F910F91FF90B9
:10362000EF90DF900895AF92BF92CF92DF92EF922A
:10363000FF920F931F93CF93DF9300D0CDB7DEB7E8
:103640006C017901461708F492C02A3031050CF05C
:103650006FC0C6014A8369830E94651969814A81E6
:10366000A2E0EA16F10401F144F4E114F10471F06E
:10367000E1E0EE16F10489F053C0F3E0EF16F10437
:1036800019F184E0E816F104B9F04AC091E001159F
:10369000110509F090E08CE01DC0902F0830110555
:1036A0000CF097E08BE016C0902F0F3F110511F042
:1036B0000CF09FEF8AE00EC091E00115110509F4AE
:1036C00090E0919589E006C091E00115110509F49B
:1036D00090E08FE0262F30E0D6011496EC911497FD
:1036E000F0E03197E21BF30B5F01AA0CBB1C1796AD
:1036F0000D90BC91A02DF501EA0FFB1F8083D60130
:103700001496EC911497F0E03197E21BF30BEE0F57
:10371000FF1F17962D913C911897E20FF31F91838D
:103720006F5F461708F09CCFC6010E94CE1821C0DB
:103730002A30310521F02B30310589F01AC021E003
:103740000130110509F020E0D6011D962C932223AB
:1037500081F0C60129830E949B1A29810BC081E058
:103760000130110509F080E0F601868702C020E0F3
:1037700001C021E0822F0F900F90DF91CF911F9118
:103780000F91FF90EF90DF90CF90BF90AF90089592
:10379000CF92DF92FF920F931F93CF93DF931F92ED
:1037A000CDB7DEB76C01F62E8901DC019E96ED9156
:1037B000FC919F973097C9F080818F1112C00180D2
:1037C000F281E02D8081F42E841708F4F82E4F2D1D
:1037D00050E0BF016F5F7F4FC8010E94C42B8F2D47
:1037E00055C00380F481E02DE5CFF60127A930AD67
:1037F000808191812115310511F428E131E0DC014E
:1038000050963C932E931F9749830E943E17F601D2
:10381000C080D18049810115110509F436C0F60137
:10382000A189B28987859089109779F420E060E0BA
:1038300070E02F1581F0FC01E60FF71FA491B0E0B6
:1038400011966A0F7B1F2F5FF4CFAF0DB11DAF0D27
:10385000B11D6D917C91FC01E60FF71F8491481713
:1038600008F04491902FD8016F5F7F4F8A2F891BFA
:10387000841748F4F60127853089F901E60FF71F10
:10388000E491ED93F1CF842F01C080E00F90DF91A0
:10389000CF911F910F91FF90DF90CF9008951F93CC
:1038A000CF93DF93EC01142F29A93AA948A90E94CC
:1038B000C81B112379F090E02BA9921758F428A97E
:1038C000821730F4E9A9FAA9E80FF11D10828F5F81
:1038D0009F5FF2CFDF91CF911F9108951F93CF93F8
:1038E000DF93EC018DA5811137C0EBA5FCA541E06C
:1038F0008181811101C040E06081CE010E944F1C96
:10390000182F9E8D8A8D91FD0AC0882319F08E890B
:103910009F8902C0888D998D059781F409C08823FD
:1039200019F08E899F8902C0888D998D059731F095
:1039300069A97AA9412FCE010E94BC198E8D80FF02
:1039400006C069A97AA9412FCE010E94A119CE0112
:103950000E947019812F01C080E0DF91CF911F91EB
:1039600008951F93CF93DF93EC01E9A5FAA5FCA777
:10397000EBA7309719F08081811104C081E08DA7F9
:1039800080E054C01DA69E8D8A8D91FD0AC08823BB
:1039900019F08E899F8902C0888D998D059781F4D1
:1039A00009C0882319F08E899F8902C0888D998D5E
:1039B000059731F001900020E9F73297FCA7EBA7BB
:1039C000EBA5FCA541E08181811101C040E060814F
:1039D000CE010E944F1C182F9E8D8A8D91FD0AC02A
:1039E000882319F08E899F8902C0888D998D05974B
:1039F00081F409C0882319F08E899F8902C0888DBF
:103A0000998D059731F069A97AA9412FCE010E94BD
:103A1000BC198E8D80FF06C069A97AA9412FCE01FD
:103A20000E94A119CE010E947019812FDF91CF91C0
:103A30001F910895FC01848995898230910519F4BC
:103A40002189328902C02785308933A322A336A376
:103A500025A38230910519F42785308902C0218978
:103A6000328930A727A3029711F08FEF01C081E0C0
:103A700084A308951F93CF93DF93DC01ED91FC9114
:103A80001197478550894115510599F080E091E0E3
:103A900010E020E030E0FA01E20FF31FE4911E177E
:103AA00008F41E2FF0E031962E0F3F1F019799F773
:103AB00001C010E0D3968C91D397180FD0968C91BB
:103AC000D097811770F4ED0189A99AA9009711F098
:103AD0000E945D2A18AB812F90E00E94C8299AAB02
:103AE00089ABDF91CF911F9108950F931F93CF93CF
:103AF000DF93FC01848190E0A62FB0E0A817B907FE
:103B00004CF5483038F589E0689FD0011124C58113
:103B1000D681CA0FDB1FC40FD11D288385819681F2
:103B2000A80FB91F01E010E020E030E004C0000F52
:103B3000111F221F331F4A95D2F718968C911897A0
:103B4000082B18960C93C585CC2331F0CF010E9429
:103B5000381A03C0C0E001C0C1E08C2FDF91CF91C3
:103B60001F910F9108950F931F93CF93DF93FC0143
:103B7000522F848190E0262F30E02817390784F5F2
:103B8000483070F5583060F589E0689FD001112405
:103B9000858196818A0F9B1FEC01C40FD11D28815E
:103BA000EC01C50FD11D288385819681A80FB91F0F
:103BB00001E010E020E030E004C0000F111F221FE0
:103BC000331F5A95D2F718968C911897082B189690
:103BD0000C93C585CC2331F0CF010E94381A03C065
:103BE000C0E001C0C1E08C2FDF91CF911F910F91F8
:103BF0000895AC0190E089E320914606921748F4BD
:103C0000899FF0011124EF59FA4F508747839F5F36
:103C1000F3CF0895CF93DF93FC0144815581411583
:103C20005105C9F04530510510F4BA0102C065E0F4
:103C300070E0EC0188819981461B570B5D834C83B2
:103C4000680F791F0E94FB2BE881F9818C819D818F
:103C5000E80FF91F1082DF91CF910895EF92FF9244
:103C60001F93CF93DF93DC01362F842F99E0699F58
:103C7000E001112441E050E060E070E004C0440F36
:103C8000551F661F771F8A95D2F7142F409580E045
:103C900090E0622F70E01596ED91FC9116977B01F4
:103CA000082E02C0F594E7940A94E2F7EC0FFD1F8A
:103CB000E80FF91F2081E0FE02C0212B01C0242360
:103CC000208301968830910531F715968D919C914E
:103CD0001697C80FD91F8FEF88871D968C911D9757
:103CE000882321F0632FCD010E94381A81E0DF91F3
:103CF000CF911F91FF90EF9008958F929F92AF9276
:103D0000BF92CF92DF92EF92FF92FC01248130E0CC
:103D1000862F90E08217930754F5483040F591E0E4
:103D200001C0990F4A95EAF70580F681E02D89E0F8
:103D3000689FE00DF11D112420E030E080E0C12CEF
:103D4000D12C7601C3944191492359F04601570182
:103D5000022E04C0880C991CAA1CBB1C0A94D2F722
:103D600088292F5F3F4F2830310569F701C080E077
:103D7000FF90EF90DF90CF90BF90AF909F908F908B
:103D80000895AF92BF92CF92DF92EF92FF920F937E
:103D90001F93CF93DF93CDB7DEB729970FB6F89473
:103DA000DEBF0FBECDBF4830510508F02BC1FA0170
:103DB000F62E8C01E95AFF4F0C94AE2939E0639F2F
:103DC000A001112480E090E0D8011596ED91FC91BE
:103DD0001697E40FF51FE80FF91F2081220F2083AB
:103DE00001968830910581F7FFC0B9E06B9FA00173
:103DF000112420E030E0D8011596ED91FC91169742
:103E0000E40FF51FE20FF31F808190E095958795F1
:103E100080832F5F3F4F2830310569F7E5C0FC01F3
:103E200086858823A9F0848190E0262F30E028172A
:103E3000390754F40580F681E02D39E0639FE00DE9
:103E4000F11D1124808101C080E0898320E002C03F
:103E50001982FCCFEE24E394E20E4E2D6F2DC801A3
:103E60000E94B31D2E2D2730A9F7298147E02DC0D0
:103E7000DC011E968C911E978823C1F014968C91BC
:103E8000149790E0262F30E0281739075CF4159638
:103E9000ED91FC911697B9E06B9FE00DF11D112497
:103EA000878101C080E0898328E002C01982FCCFAD
:103EB000EE24EA94E20E4E2D6F2DC8010E94B31D30
:103EC0002E2DE110F5CF298140E06F2DC8010E9411
:103ED000751D8AC0E9E06E9FB001112440E050E0FA
:103EE000D8011596ED91FC911697E60FF71FE40F98
:103EF000F51F20812295922F9373B4E09B9FC00100
:103F000011242C7C26952695822B982F9575990F38
:103F10008A7A8695892B80834F5F5F4F48305105A1
:103F2000F9F662C0E9E06E9FB001112420E030E0B4
:103F300087E0C82ED12CD80115968D919C911697AB
:103F4000860F971FDC01A20FB31FEC90A601421B46
:103F5000530B840F951FFC0180818C93D80115961B
:103F60008D919C911697860F971FDC01A40FB51FAA
:103F7000EC922F5F3F4F24303105E9F635C0FE014A
:103F800031966F015F0127E0422F6F2DC80129870D
:103F90000E947D1ED5018D935D0129852150A0F7DA
:103FA000E12CF60121916F014E2D6F2DC8010E9469
:103FB000751DE394F8E0EF12F4CF16C039E0639F6B
:103FC000A001112480E090E0D8011596ED91FC91BC
:103FD0001697E40FF51FE80FF91F20812095208325
:103FE00001968830910581F7D8011596ED91FC91E5
:103FF0001697B9E0FB9EE00DF11D11248FEF80872D
:1040000081E001C080E029960FB6F894DEBF0FBEB4
:10401000CDBFDF91CF911F910F91FF90EF90DF9077
:10402000CF90BF90AF900895FF920F931F93CF93BF
:10403000DF93EC01F62E8B859C85442309F45BC04D
:104040008430910574F48130910574F4892B09F062
:104050004FC0CE010E941A1D83E090E09C878B87A1
:1040600003C0059709F044C08B859C85059721F412
:1040700083E090E09C878B87CE010E94F20E0AA11C
:104080001BA12CA18FA198A5820F911D27FD9A95A8
:104090000817190769F04B8D4195602F8881998128
:1040A0000E9457178CA1080F111D87FD1A95E9CFA3
:1040B000FF2069F06AA17BA16017710741F04B8D69
:1040C00081E048274195888199810E9457174AA12C
:1040D0005BA19CA1892F990F990B2FA138A5280FBF
:1040E000391F4217530709F059C025E030E054C08A
:1040F00085E090E05AC08430910534F48130910518
:104100006CF4892B21F04FC0059709F04CC0CE010B
:104110000E941A1D83E090E09C878B87CE010E944D
:10412000F20E0DA11EA16AA17BA18CA1082E000C8C
:10413000990BAB01480F591F0417150769F04B8DF8
:104140004195602F888199810E9457178CA1080F93
:10415000111D87FD1A95E7CFFF2079F04FA158A5D3
:10416000840F951F6817790741F04B8D81E0482730
:104170004195888199810E9457174AA15BA19CA112
:10418000892F990F990B2FA138A5280F391F421796
:10419000530721F426E030E03C872B87840F951FDE
:1041A0009BA38AA304C086E090E09C878B87DF9165
:1041B000CF911F910F91FF900895FF920F931F933E
:1041C000CF93DF93EC01F62E8B859C854423F1F190
:1041D00084309105B4F481309105ACF4892B99F5C4
:1041E0001BA21AA200E010E02BE030E049A168A178
:1041F000888199810E94131B83E090E09C878B87C4
:1042000002C0059701F5CE010E94D70ECE010E9493
:10421000F20E1AA1173078F4F11003C022E030E05A
:1042200002C023E030E049A168A1888199810E9401
:104230006C171F5FEFCF8AA19BA18730910569F5AD
:1042400025E030E028C085E090E02DC08430910565
:1042500034F4813091055CF4892B19F022C0059764
:1042600001F51BA21AA283E090E09C878B87F110D6
:1042700003C023E030E002C022E030E049A168A1A1
:10428000888199810E946C178AA19BA18730910532
:1042900021F426E030E03C872B8701969BA38AA37C
:1042A00004C086E090E09C878B87DF91CF911F91BF
:1042B0000F91FF900895CF92DF92EF92FF921F939C
:1042C000CF93DF93EC01D42E8B859C85662309F474
:1042D00058C08430910584F48130910584F4892B91
:1042E00009F04CC0CE010E941A1D1BA21AA283E045
:1042F00090E09C878B8703C0059709F03FC0CE01F3
:104300000E94F20E2AA13BA128303105B9F1EDA09F
:10431000FEA081E090E001C0880F2A95EAF7182FEF
:10432000DD20B9F0109515C08B8DC880D9806E2D19
:104330008823D1F0C6010E943717412F4095482BA2
:104340006E2DC6010E9457178CA1E80EF11C87FD47
:10435000FA942CA18FA198A5820F911D27FD9A9503
:10436000E816F90609F706C0C6010E943717482F5C
:104370004123E6CF8AA19BA101965DC085E090E034
:104380005FC08430910534F4813091058CF4892B21
:1043900021F054C0059709F051C0CE010E941A1DAA
:1043A00087E090E09BA38AA383E090E09C878B87C3
:1043B000CE010E94F20E8AA19BA197FD06C011E0DA
:1043C00001C0110F8A95EAF701C010E0EDA0FEA030
:1043D000DD20B9F0109515C08B8DC880D9806E2D69
:1043E0008823D1F0C6010E943717412F4095482BF2
:1043F0006E2DC6010E9457178CA1E80EF11C87FD97
:10440000FA942CA18FA198A5820F911D27FD9A9552
:10441000E816F90609F706C0C6010E943717482FAB
:104420004123E6CF8AA19BA197FF04C026E030E09C
:104430003C872B8701979BA38AA304C086E090E06A
:104440009C878B87DF91CF911F91FF90EF90DF903A
:10445000CF9008950F931F93CF93DF9383E892E05B
:1044600090934B0580934A0581E695E0892B29F4CA
:1044700080915105882369F119C0CAE3D6E088818B
:104480009981009739F0FC01038114810E945D2A13
:10449000C801F7CF8B819C81009711F00E945D2AA3
:1044A000E997F5E0C635DF0751F7E2CF9FB7F894FB
:1044B00080918803882319F081508093880380912C
:1044C0008803811105C08CB58F7B8CBD10920805C7
:1044D0009FBF80915305909154050E945D2A809161
:1044E0005505909156050E945D2A81E792E09093D0
:1044F0008A038093890389E893E0DF91CF911F912C
:104500000F910C94F91610928C0310928B0388EE85
:1045100093E0A0E0B0E080938D0390938E03A0938E
:104520008F03B093900381E792E090938A03809386
:1045300089031092A00310929F031092A20310927D
:10454000A1031092A4031092A3031092A603109249
:10455000A5036091A7036E7F6D7F6093A7036695A7
:10456000617081E068278CE00E948A1361E08CE032
:104570000E94D613ECEFF0E0E491E0939903E8EEAB
:10458000F0E0E491F0E0EE0FFF1FEE52FF4F859157
:10459000949190939B0380939A0360E088E00E943B
:1045A000D6138091A70381FD04C061E088E00E94DA
:1045B0008A1388E080939503E8EFF0E0E491E093BC
:1045C0009603E4EEF0E0E491F0E0EE0FFF1FE2541A
:1045D000FF4F859194919093980380939703109245
:1045E0004D0510924C0583E892E090934B05809323
:1045F0004A0510924E0510924F058AE080935005AF
:1046000081E0809351059CE09093520580935B0577
:10461000EFE7F5E080E090E066E070E041E0DF0188
:10462000539711967C936E9351961D921C92108213
:10463000118A108A9C01265B3A4FD901A95BBF4FB2
:104640001C92148A138A13964C93128E118EC9965B
:10465000F996843E910519F78CE0809345060895FC
:10466000CF93DF93CDB7DEB762970FB6F894DEBF76
:104670000FBECDBF789484B5826084BD84B581605F
:1046800084BD85B5826085BD85B5816085BD80911D
:104690006E00816080936E00109281008091810095
:1046A000826080938100809181008160809381008D
:1046B000809180008160809380008091B10084604F
:1046C0008093B1008091B00081608093B0008091B0
:1046D0007A00846080937A0080917A00826080936F
:1046E0007A0080917A00816080937A0080917A00CC
:1046F000806880937A001092C1001092A4031092F7
:10470000A3031092A2031092A1031092A00310928F
:104710009F038DE991E09093A6038093A503909168
:104720009503963108F057C02DEB30E03093A0038D
:1047300020939F032BE931E03093A2032093A10340
:104740002CE231E03093A4032093A303209168006E
:10475000983050F031E09E3008F430E081E001C044
:10476000880F3A95EAF701C084E0822B80936800B5
:10477000983038F09E3040F0963148F020E030E03C
:1047800008C02DE630E005C02BE630E002C02CE684
:1047900030E030939D0320939C03983030F481E007
:1047A00001C0880F9A95EAF70EC0292F30E09E309D
:1047B00018F42850310902C02E50310981E001C09F
:1047C000880F2A95EAF780939E038091A503909124
:1047D000A6030197F1F78091A3039091A403892B7D
:1047E00021F1809186039091870323E08938920715
:1047F000E1F0009711F00E94F9168091A7038E7FD7
:104800008093A703109285031092840389E893E0B4
:104810009093870380938603E0919C03F0919D031E
:10482000908180919E03892B8083809151058823FC
:1048300009F434C01FB7F89480918803811127C010
:10484000E6EEF0E08491EAEFF0E09491E82FF0E0FA
:10485000EE0FFF1FE853FF4FA591B491EC91E923B0
:1048600021F461E08AE00E948A1361E08AE00E94FC
:10487000D6138CB580618CBD8CB580648CBD61E035
:104880008DE00E94D61361E08BE00E94D6138091E8
:1048900088038F5F809388031FBF0AC061E0809107
:1048A0004E050E94D61361E080914F050E94D613F9
:1048B00061E0809150050E948A1361E0809150056B
:1048C0000E94D613109258051092570510925A055F
:1048D0001092590510915205E9E01E9FC001112464
:1048E0000E94C8299093540580935305812F90E02E
:1048F000880F991F0E94C8299093560580935505EB
:104900001092600510925F0588E191E090935E053A
:1049100080935D058EE495E00E943E1740E050E0F4
:1049200063E070E08EE495E00E94AC0347E050E065
:1049300061E070E08EE495E00E94AC034FE750E048
:1049400062E070E08EE495E00E94AC0340E050E04D
:1049500064E070E08EE495E00E94AC034091520563
:10496000415060E08EE495E00E940F1740E050E077
:1049700060E070E08EE495E00E94AC0381E08093FB
:10498000460610E009E35EE4E52E55E0F52E809141
:104990004606181770F4019FC0011124FC01E65B64
:1049A000FA4FF08EE78A8F599A4F0E943A1D1F5F87
:1049B000EECF813051F4909145068FEF890F891722
:1049C00020F410928105809382058AE090E00E9495
:1049D000F91D80916805909169054AE0489F900112
:1049E000499F300D112480E049E3909146068917D4
:1049F00048F4489FF0011124EF59FA4F328721877C
:104A00008F5FF3CF10E009E3FF24F3948091460613
:104A1000181768F4019FC0011124FC01EC56FA4FED
:104A2000F0828F599A4F0E943A1D1F5FEFCF80E0AE
:104A300029E390914606891748F4289FF001112434
:104A4000EF59FA4F158E148E8F5FF3CF80E029E374
:104A500090914606891748F4289FF0011124EF59D8
:104A6000FA4F158A148A8F5FF3CFE7E7F5E080E00D
:104A700021E030E0891739F03183208313821282DC
:104A80008F5FF996F7CF10928B0510928A0580E020
:104A900029E390914606891740F4289FF0011124DC
:104AA000EF59FA4F138E8F5FF4CF10E009E3809136
:104AB0004606181750F4019FC00111246FE78F5963
:104AC0009A4F0E94B9031F5FF2CF88E191E0909363
:104AD0005E0580935D058EE495E00E943E1780910F
:104AE0004606882321F18AEA93E090938B05809310
:104AF0008A05109276051092750589E190E09093F1
:104B000069058093680581E090E090936B05809340
:104B10006A0584E090E09093780580937705909300
:104B20007A058093790510926D0510926C0525E049
:104B3000C22ED12C34E0E32EF12C89E3982E90E0A4
:104B4000A92E90E0B92E8AE495E00E94CA03811153
:104B500008C089E893E00E947F14892B09F4B1C250
:104B60008DC280916202882309F479C264E071E009
:104B7000CE010D960E946A166DE872E0CE01019694
:104B80000E946A166FE872E0CE0107960E946A16CC
:104B9000AE014F5F5F4FBE01695F7F4FCE010D9643
:104BA0000E94C314CE0107960E946516CE0101969D
:104BB0000E94651664E972E0CE0101960E946A16B1
:104BC00066E972E0CE0107960E946A16AE014F5F59
:104BD0005F4FBE01695F7F4FCE010D960E94C314E7
:104BE000CE0107960E946516CE0101960E946516B9
:104BF0006BE972E0CE0101960E946A166DE972E0DF
:104C0000CE0107960E946A16AE014F5F5F4FBE014C
:104C1000695F7F4FCE010D960E94C314CE010796A7
:104C20000E946516CE0101960E94651662EA72E046
:104C3000CE0101960E946A1664EA72E0CE010796E0
:104C40000E946A16AE014F5F5F4FBE01695F7F4FE2
:104C5000CE010D960E94C314CE0107960E946516E0
:104C6000CE0101960E94651669EA72E0CE010196B6
:104C70000E946A166BEA72E0CE0107960E946A16DD
:104C8000AE014F5F5F4FBE01695F7F4FCE010D9652
:104C90000E94C314CE0107960E946516CE010196AC
:104CA0000E94651660EB72E0CE0101960E946A16C2
:104CB00062EB72E0CE0107960E946A16AE014F5F6A
:104CC0005F4FBE01695F7F4FCE010D960E94C314F6
:104CD000CE0107960E946516CE0101960E946516C8
:104CE00067EB72E0CE0101960E946A1669EB72E0F2
:104CF000CE0107960E946A16AE014F5F5F4FBE015C
:104D0000695F7F4FCE010D960E94C314CE010796B6
:104D10000E946516CE0101960E9465166EEA72E049
:104D2000CE0101960E946A166EEB72E0CE010796E4
:104D30000E946A16AE014F5F5F4FBE01695F7F4FF1
:104D4000CE010D960E94C314CE0107960E946516EF
:104D5000CE0101960E94651663EC72E0CE010196C9
:104D60000E946A1665EC72E0CE0107960E946A16F0
:104D7000AE014F5F5F4FBE01695F7F4FCE010D9661
:104D80000E94C314CE0107960E946516CE010196BB
:104D90000E9465166AEC72E0CE0101960E946A16C6
:104DA0006CEC72E0CE0107960E946A16AE014F5F6E
:104DB0005F4FBE01695F7F4FCE010D960E94C31405
:104DC000CE0107960E946516CE0101960E946516D7
:104DD00009891A890115110519F41092040111C0ED
:104DE0000D35F1E01F0710F00DE511E06D857E85B2
:104DF000A80184E091E00E94FB2BF801EC5FFE4FDC
:104E0000108261ED72E0CE0101960E946A16BE0129
:104E10006F5F7F4FCE010D960E940A16182FCE01AC
:104E200001960E9465161123C1F0CE010D960E94D5
:104E30000A1ECE010D960E94B814062F10E0809134
:104E40004606181768F5919EC0011124602F8F59EE
:104E50009A4F0E94B9031F5FF2CF67ED72E0CE0157
:104E600001960E946A16BE016F5F7F4FCE010D96BC
:104E70000E940A16182FCE0101960E946516112372
:104E8000B1F0CE010D960E940A1ECE010D960E9431
:104E9000B8147093030160930201CB010E94F91DC5
:104EA0006AEA73E084E091E00E94E62BCCC06DEDED
:104EB00072E0CE0101960E946A16BE016F5F7F4FBD
:104EC000CE010D960E940A16182FCE0101960E945F
:104ED0006516112379F1CE010D960E940A1ECE01AE
:104EE0000D960E94B8147093A9036093A8036115EE
:104EF000710571F490914606E7E7F5E080E08917C7
:104F000079F2F182E082F382E2828F5FF996F7CF45
:104F1000161617062CF690914606E7E7F5E080E0B6
:104F2000891709F4BDCFD182C082D382C2828F5F3C
:104F3000F996F6CF63EE72E0CE0101960E946A16F2
:104F4000BE016F5F7F4FCE010D960E940A16182F8B
:104F5000CE0101960E946516112309F474C0CE019A
:104F60000D960E940A1ECE010D960E94B8147093F1
:104F7000A9036093A8036115710599F49091460601
:104F8000E7E7F5E080E0891739F0F182E082F3820B
:104F9000E2828F5FF996F7CF4DE050E069EE72E064
:104FA00031C061307105C9F490914606E7E7F5E03C
:104FB00080E0891739F0F182E082F382E2828F5F2C
:104FC000F996F7CF4AE650E067EF72E0CE010D9612
:104FD0000E94251689E190E01BC062307105D1F472
:104FE00090914606E7E7F5E080E0891739F0D18235
:104FF000C082D382C2828F5FF996F7CF4DE050E036
:1050000062E673E0CE010D960E94251688E090E0DE
:105010000E94F91D09891A890115110519F41092C8
:10502000040111C00D3521E0120710F00DE511E06B
:105030006D857E85A80184E091E00E94FB2BF8013C
:10504000EC5FFE4F108264E071E08AEA93E00E9418
:10505000E62B10926202CE010D960E94651680E04A
:1050600090914606891708F074CD989EF00111249E
:10507000EF59FA4F148613868F5FF2CF009100012B
:105080001091010189E893E00E949714F801808350
:105090008A3029F084E091E08C35914060F0F8018D
:1050A000108284E091E0909301018093000181E0FF
:1050B0008093620206C00F5F1F4F1093010100939F
:1050C0000001A114B10409F43ECD0E94000035CDC9
:1050D0008F929F92AF92BF92CF92DF92EF92FF9208
:1050E000CF93DF93EC01688179818A819B8161157F
:1050F00071058105910521F464E279ED8BE597E076
:105100002DE133EF41E050E00E94002949015A01AE
:105110009B01AC01A7EAB1E40E941F296B017C014D
:10512000ACEEB4EFA50194010E942D29DC01CB0166
:105130008C0D9D1DAE1DBF1DB7FF03C00197A109BA
:10514000B04888839983AA83BB83BC01CD019F7734
:10515000DF91CF91FF90EF90DF90CF90BF90AF9015
:105160009F908F9008950E946828089583E692E0AA
:105170000E9468280895609363027093640280938C
:1051800065029093660208951F93FC019927882772
:10519000BC01E89411911032E9F3193010F01E307F
:1051A000C8F31B3251F01D3249F4689406C00E94C6
:1051B000EB28610F711D811D911D119110531A3043
:1051C000B0F33EF490958095709561957F4F8F4F29
:1051D0009F4F1F910895592F482F372F262F660F65
:1051E000771F881F991F660F771F881F991F620FEF
:1051F000731F841F951F660F771F881F991F0895BF
:10520000052E97FB1EF400940E94172957FD07D026
:105210000E94692907FC03D04EF40C94172950957D
:105220004095309521953F4F4F4F5F4F0895909592
:105230008095709561957F4F8F4F9F4F08950E9485
:105240008B29A59F900DB49F900DA49F800D911D5B
:1052500011240895B7FF0C941F290E941F29821B57
:10526000930B08952F923F924F925F926F927F928D
:105270008F929F92AF92BF92CF92DF92EF92FF9266
:105280000F931F93CF93DF93CDB7DEB7CA1BDB0B12
:105290000FB6F894DEBF0FBECDBF09942A883988B7
:1052A00048885F846E847D848C849B84AA84B984BE
:1052B000C884DF80EE80FD800C811B81AA81B981CA
:1052C000CE0FD11D0FB6F894DEBF0FBECDBFED01DE
:1052D0000895A1E21A2EAA1BBB1BFD010DC0AA1F37
:1052E000BB1FEE1FFF1FA217B307E407F50720F04F
:1052F000A21BB30BE40BF50B661F771F881F991FCA
:105300001A9469F760957095809590959B01AC0112
:10531000BD01CF010895A29FB001B39FC001A39F1B
:10532000700D811D1124911DB29F700D811D1124DE
:10533000911D089597FB072E16F4009407D077FD72
:1053400009D00E94B42907FC05D03EF490958195C0
:105350009F4F0895709561957F4F0895EE0FFF1F41
:105360000590F491E02D0994AA1BBB1B51E107C0E5
:10537000AA1FBB1FA617B70710F0A61BB70B881FE5
:10538000991F5A95A9F780959095BC01CD01089574
:10539000CF93DF938230910510F482E090E0E091AA
:1053A0004906F0914A0620E030E0C0E0D0E03097B6
:1053B00011F14081518148175907C0F0481759072A
:1053C00061F482819381209719F09B838A832BC09B
:1053D00090934A068093490626C02115310519F09D
:1053E0004217530718F49A01BE01DF01EF01028052
:1053F000F381E02DDCCF2115310509F1281B390B94
:105400002430310590F412968D919C91139761157B
:10541000710521F0FB019383828304C090934A06B7
:1054200080934906FD01329644C0FD01E20FF31F4F
:1054300081939193225031092D933C933AC020914E
:10544000470630914806232B41F4209169023091A0
:105450006A023093480620934706209167023091F4
:1054600068022115310541F42DB73EB740916B021A
:1054700050916C02241B350BE0914706F0914806D1
:10548000E217F307A0F42E1B3F0B2817390778F01B
:10549000AC014E5F5F4F2417350748F04E0F5F1F7A
:1054A00050934806409347068193919302C0E0E0F1
:1054B000F0E0CF01DF91CF9108950F931F93CF9329
:1054C000DF93009709F48CC0FC013297138212829B
:1054D0000091490610914A060115110581F42081B9
:1054E0003181820F931F209147063091480628177B
:1054F000390779F5F0934806E093470671C0D80163
:1055000040E050E0AE17BF0750F412962D913C9149
:105510001397AD012115310509F1D901F3CF9D0193
:10552000DA013383228360817181860F971F82178E
:10553000930769F4EC0128813981260F371F2E5F0C
:105540003F4F318320838A819B8193838283452BC4
:1055500029F4F0934A06E093490642C01396FC935F
:10556000EE931297ED01499159919E01240F351F39
:10557000E217F30771F480819181840F951F0296E1
:1055800011969C938E938281938113969C938E9314
:105590001297E0E0F0E0D80112968D919C9113975C
:1055A000009719F0F8018C01F6CF8D919C9198012C
:1055B0002E5F3F4F820F931F209147063091480680
:1055C0002817390769F4309729F410924A06109287
:1055D000490602C0138212821093480600934706C0
:1055E000DF91CF911F910F910895A0E0B0E0EBEF14
:1055F000FAE20C943629EC01009721F4CB010E94C9
:10560000C829B8C0FC01E60FF71F9C0122503109E0
:10561000E217F30708F4ACC0D9010D911C91119762
:1056200006171707B0F00530110508F49FC0C80130
:1056300004978617970708F499C002501109061BB2
:10564000170B019311936D937C93CF010E945D2AF8
:105650008DC05B01A01AB10A4C01800E911EA09171
:105660004906B0914A0640E050E0E12CF12C109739
:1056700009F44AC0A815B905D1F56D907C90119731
:10568000630182E0C80ED11CCA14DB0480F1A301BF
:105690004A195B096A0182E0C80ED11C1296BC90BF
:1056A00012971396AC91B5E0CB16D10440F0B282BC
:1056B000A38351834083D9016D937C930AC00E5F0D
:1056C0001F4FC301800F911FF90191838083EB2D40
:1056D000FA2FE114F10431F0D7011396FC93EE9305
:1056E000129744C0F0934A06E09349063FC08D915B
:1056F0009C9111974817590708F4AC017D01129647
:105700000D90BC91A02DB3CF809147069091480693
:1057100088159905E1F446175707C8F48091670288
:1057200090916802009741F48DB79EB740916B024B
:1057300050916C02841B950BE817F907C8F4F0939D
:105740004806E0934706F901718360830FC0CB01DF
:105750000E94C8297C01009759F0A801BE010E944F
:10576000C42BCE010E945D2AC70104C0CE0102C035
:1057700080E090E0CDB7DEB7EEE00C94522981E0F6
:1057800090E0F8940C94242CFB01DC0102C0019001
:105790000D9241505040D8F708956817790768F482
:1057A000FB01DC01E40FF51FA40FB51F02C002903E
:1057B0000E9241505040D8F708950C94C42BDC0150
:1057C00001C06D9341505040E0F70895FB01DC01AA
:1057D00001900D920020E1F70895FB01DC0141509A
:1057E000504030F08D910190801919F40020B9F7E4
:1057F000881B990B0895FB01DC014150504048F093
:1058000001900D920020C9F701C01D9241505040F7
:10581000E0F70895FB0151915523A9F0BF01DC0188
:105820004D9145174111E1F759F4CD010190002048
:1058300049F04D9140154111C9F3FB014111EFCFE2
:1058400081E090E00197089513E0C5E6D3E004C03D
:10585000FE010E94AE292196C636D107C9F7F894F9
:02586000FFCF78
:1058620004010300206175746F6D617469736D6F5B
:10587200732C20616C61726D61732C2073656E7381
:105882006F7265732C2061726475696E6F2E2E2E95
:1058920020206574632E202054464E4F2020363738
:1058A200372037383920343930200000000000001A
:1058B20000000000000000000000000000000000E6
:1058C20000000000000000000000000000000000D6
:1058D20000000000000000000000000000000000C6
:1058E20000000000000000000000000000000000B6
:1058F20000000000000000000000000000000000A6
:105902000000000000000000000000000000000095
:105912000000000000000000000000000000000085
:105922000000000000000000000000000000000075
:105932000000000000000000000000000000000065
:105942000000000000000000000000000000000055
:105952000000000000000000000000000000000045
:105962000000000000000000000000000000000035
:105972000000000000000000000000000000000025
:105982000000000000000000000000000000000015
:105992000000000000000000000000000000000005
:1059A20000000000000000000000000000000000F5
:1059B20000000000000000000000000000000000E5
:1059C2000000010100000000004B06800000000002
:1059D200002B143F0DA9032A147F149714121400EC
:1059E2000000009003D019A903A8030A1AA400C357
:1059F20083C2B100A500C383C291008100C383C2E8
:105A0200BC00A700C382C2B000A000C383C2A10031
:105A1200A600C382C2AA008200C383C2A900C383B4
:105A2200C2AD00A200C383C2B300A300C383C2BA43
:105A320000736C646C3A00736C64733A0062757440
:105A4200743A00627574323A003C3D3D3D2020209C
:105A520020203C3D3D3D00205065717565A46F736B
:105A62002074726162616A6F7320656E20746F7256
:105A72006E6F20792066726573612C206175746F78
:105A82006D617469736D6F732C20616C61726D61ED
:105A9200732C2073656E736F7265732C2061726450
:105AA20075696E6F2E2E2E20206574632E20205471
:105AB200464E4F2020363737203738392034393098
:105AC20020003D3D3D3E20202020203D3D3D3E002A
:00000001FF
